{
  "contractName": "Countdown",
  "abi": [
    {
      "inputs": [],
      "stateMutability": "nonpayable",
      "type": "constructor"
    },
    {
      "inputs": [
        {
          "internalType": "uint256",
          "name": "time",
          "type": "uint256"
        }
      ],
      "name": "setGameDuration",
      "outputs": [],
      "stateMutability": "nonpayable",
      "type": "function"
    },
    {
      "inputs": [],
      "name": "getDuration",
      "outputs": [
        {
          "internalType": "uint256",
          "name": "",
          "type": "uint256"
        }
      ],
      "stateMutability": "view",
      "type": "function",
      "constant": true
    },
    {
      "inputs": [],
      "name": "_restore",
      "outputs": [],
      "stateMutability": "nonpayable",
      "type": "function"
    },
    {
      "inputs": [],
      "name": "timeLeft",
      "outputs": [
        {
          "internalType": "uint256",
          "name": "",
          "type": "uint256"
        }
      ],
      "stateMutability": "view",
      "type": "function",
      "constant": true
    },
    {
      "inputs": [],
      "name": "getVote",
      "outputs": [
        {
          "components": [
            {
              "internalType": "uint256",
              "name": "weight",
              "type": "uint256"
            },
            {
              "internalType": "bool",
              "name": "voted",
              "type": "bool"
            }
          ],
          "internalType": "struct Countdown.Voter",
          "name": "",
          "type": "tuple"
        }
      ],
      "stateMutability": "view",
      "type": "function",
      "constant": true
    },
    {
      "inputs": [
        {
          "internalType": "uint256",
          "name": "_weight",
          "type": "uint256"
        }
      ],
      "name": "vote",
      "outputs": [],
      "stateMutability": "nonpayable",
      "type": "function"
    }
  ],
  "bytecode": "0x6080604052603c60015534801561001557600080fd5b504260008190555061057b8061002c6000396000f3fe608060405234801561001057600080fd5b50600436106100625760003560e01c80630121b93f146100675780630242f351146100835780631300a6d1146100a1578063844a1e23146100bf578063ad2e8c9b146100c9578063afe9fb90146100e7575b600080fd5b610081600480360381019061007c919061032e565b610103565b005b61008b6101ba565b60405161009891906103b4565b60405180910390f35b6100a9610236565b6040516100b691906103de565b60405180910390f35b6100c76102ba565b005b6100d16102c3565b6040516100de91906103de565b60405180910390f35b61010160048036038101906100fc919061032e565b6102cd565b005b600061010d610236565b1161014d576040517f08c379a000000000000000000000000000000000000000000000000000000000815260040161014490610456565b60405180910390fd5b6000600260003373ffffffffffffffffffffffffffffffffffffffff1673ffffffffffffffffffffffffffffffffffffffff168152602001908152602001600020905060018160010160006101000a81548160ff0219169083151502179055508181600001819055505050565b6101c26102d7565b600260003373ffffffffffffffffffffffffffffffffffffffff1673ffffffffffffffffffffffffffffffffffffffff168152602001908152602001600020604051806040016040529081600082015481526020016001820160009054906101000a900460ff161515151581525050905090565b600042600054111561027d576040517f08c379a0000000000000000000000000000000000000000000000000000000008152600401610274906104c2565b60405180910390fd5b600080544261028c9190610511565b905060006001548210156102ad57816001546102a89190610511565b6102b0565b60005b9050809250505090565b42600081905550565b6000600154905090565b8060018190555050565b6040518060400160405280600081526020016000151581525090565b600080fd5b6000819050919050565b61030b816102f8565b811461031657600080fd5b50565b60008135905061032881610302565b92915050565b600060208284031215610344576103436102f3565b5b600061035284828501610319565b91505092915050565b610364816102f8565b82525050565b60008115159050919050565b61037f8161036a565b82525050565b60408201600082015161039b600085018261035b565b5060208201516103ae6020850182610376565b50505050565b60006040820190506103c96000830184610385565b92915050565b6103d8816102f8565b82525050565b60006020820190506103f360008301846103cf565b92915050565b600082825260208201905092915050565b7f54696d65206973206f7665720000000000000000000000000000000000000000600082015250565b6000610440600c836103f9565b915061044b8261040a565b602082019050919050565b6000602082019050818103600083015261046f81610433565b9050919050565b7f54696d65206e6f742076616c6964000000000000000000000000000000000000600082015250565b60006104ac600e836103f9565b91506104b782610476565b602082019050919050565b600060208201905081810360008301526104db8161049f565b9050919050565b7f4e487b7100000000000000000000000000000000000000000000000000000000600052601160045260246000fd5b600061051c826102f8565b9150610527836102f8565b92508282101561053a576105396104e2565b5b82820390509291505056fea2646970667358221220a9f1c0b43b65cda40393e732678e8dbb8067f9255cd38f52d00323b3df5eef3464736f6c634300080d0033",
  "immutableReferences": {},
  "source": "// SPDX-License-Identifier: MIT\r\npragma solidity ^0.8.13;\r\n\r\ncontract Countdown{\r\n\r\n    uint256 private startTime;\r\n    uint256 private gameDuration = 60; //seconds\r\n\r\n    struct Voter {\r\n        uint256 weight;\r\n        bool voted;\r\n    }\r\n\r\n    mapping(address=>Voter) private voters;\r\n\r\n    constructor(){\r\n        startTime = block.timestamp; //actual block\r\n    }\r\n\r\n    function setGameDuration(uint256 time) external{\r\n        gameDuration = time;        \r\n    }\r\n\r\n    function getDuration() external view returns(uint256){\r\n        return gameDuration;\r\n    }\r\n\r\n    function _restore () external {\r\n        startTime = block.timestamp;\r\n    }\r\n\r\n    function timeLeft()public view returns(uint256){\r\n        require(startTime <= block.timestamp, \"Time not valid\");\r\n        uint256 diff = block.timestamp - startTime;\r\n        uint256 remaining = diff >= gameDuration ? 0 : gameDuration - diff;\r\n        \r\n        return remaining;\r\n    }\r\n\r\n    //new functions \r\n\r\n    function getVote () external view returns(Voter memory) {\r\n        return voters[msg.sender];\r\n    }\r\n\r\n    function vote (uint256 _weight) external  {\r\n        require(timeLeft() > 0, \"Time is over\");\r\n        Voter storage voter = voters[msg.sender];\r\n        voter.voted = true;\r\n        voter.weight = _weight;\r\n    }\r\n}",
  "sourcePath": "C:\\Users\\Usuario\\Desktop\\UserManager\\contracts\\Countdown.sol",
  "compiler": {
    "name": "solc",
    "version": "0.8.13+commit.abaa5c0e.Emscripten.clang"
  },
  "schemaVersion": "3.4.16",
  "updatedAt": "2024-04-11T00:50:54.101Z",
  "networkType": "ethereum",
  "devdoc": {
    "kind": "dev",
    "methods": {},
    "version": 1
  },
  "userdoc": {
    "kind": "user",
    "methods": {},
    "version": 1
  }
}