{
  "contractName": "Countdown",
  "abi": [
    {
      "inputs": [],
      "stateMutability": "nonpayable",
      "type": "constructor"
    },
    {
      "inputs": [
        {
          "internalType": "uint256",
          "name": "time",
          "type": "uint256"
        }
      ],
      "name": "setGameDuration",
      "outputs": [],
      "stateMutability": "nonpayable",
      "type": "function"
    },
    {
      "inputs": [],
      "name": "getDuration",
      "outputs": [
        {
          "internalType": "uint256",
          "name": "",
          "type": "uint256"
        }
      ],
      "stateMutability": "view",
      "type": "function",
      "constant": true
    },
    {
      "inputs": [],
      "name": "_restore",
      "outputs": [],
      "stateMutability": "nonpayable",
      "type": "function"
    },
    {
      "inputs": [],
      "name": "timeLeft",
      "outputs": [
        {
          "internalType": "uint256",
          "name": "",
          "type": "uint256"
        }
      ],
      "stateMutability": "view",
      "type": "function",
      "constant": true
    }
  ],
  "bytecode": "0x6080604052603c60015534801561001557600080fd5b50426000819055506102fc8061002c6000396000f3fe608060405234801561001057600080fd5b506004361061004c5760003560e01c80631300a6d114610051578063844a1e231461006f578063ad2e8c9b14610079578063afe9fb9014610097575b600080fd5b6100596100b3565b604051610066919061016d565b60405180910390f35b610077610137565b005b610081610140565b60405161008e919061016d565b60405180910390f35b6100b160048036038101906100ac91906101b9565b61014a565b005b60004260005411156100fa576040517f08c379a00000000000000000000000000000000000000000000000000000000081526004016100f190610243565b60405180910390fd5b60008054426101099190610292565b9050600060015482101561012a57816001546101259190610292565b61012d565b60005b9050809250505090565b42600081905550565b6000600154905090565b8060018190555050565b6000819050919050565b61016781610154565b82525050565b6000602082019050610182600083018461015e565b92915050565b600080fd5b61019681610154565b81146101a157600080fd5b50565b6000813590506101b38161018d565b92915050565b6000602082840312156101cf576101ce610188565b5b60006101dd848285016101a4565b91505092915050565b600082825260208201905092915050565b7f54696d65206e6f742076616c6964000000000000000000000000000000000000600082015250565b600061022d600e836101e6565b9150610238826101f7565b602082019050919050565b6000602082019050818103600083015261025c81610220565b9050919050565b7f4e487b7100000000000000000000000000000000000000000000000000000000600052601160045260246000fd5b600061029d82610154565b91506102a883610154565b9250828210156102bb576102ba610263565b5b82820390509291505056fea2646970667358221220b5ba170615176a4623d0062492093ccf81d8f91868f7ae5059ead8c65282b7e964736f6c634300080d0033",
  "immutableReferences": {},
  "source": "// SPDX-License-Identifier: MIT\r\npragma solidity ^0.8.13;\r\n\r\ncontract Countdown{\r\n\r\n    uint256 private startTime;\r\n    uint256 private gameDuration = 60; //seconds\r\n\r\n    constructor(){\r\n        startTime = block.timestamp; //actual block\r\n    }\r\n\r\n    function setGameDuration(uint256 time) external{\r\n        gameDuration = time;        \r\n    }\r\n\r\n    function getDuration() external view returns(uint256){\r\n        return gameDuration;\r\n    }\r\n\r\n    function _restore () external {\r\n        startTime = block.timestamp;\r\n    }\r\n\r\n    function timeLeft()public view returns(uint256){\r\n        require(startTime <= block.timestamp, \"Time not valid\");\r\n        uint256 diff = block.timestamp - startTime;\r\n        uint256 remaining = diff >= gameDuration ? 0 : gameDuration - diff;\r\n        \r\n        return remaining;\r\n    }\r\n}",
  "sourcePath": "C:\\Users\\Usuario\\Desktop\\UserManager\\contracts\\Countdown.sol",
  "compiler": {
    "name": "solc",
    "version": "0.8.13+commit.abaa5c0e.Emscripten.clang"
  },
  "schemaVersion": "3.4.16",
  "updatedAt": "2024-04-08T04:35:39.109Z",
  "networkType": "ethereum",
  "devdoc": {
    "kind": "dev",
    "methods": {},
    "version": 1
  },
  "userdoc": {
    "kind": "user",
    "methods": {},
    "version": 1
  }
}