{
  "contractName": "CryptoDeposit",
  "abi": [
    {
      "inputs": [
        {
          "internalType": "uint256",
          "name": "amount",
          "type": "uint256"
        },
        {
          "internalType": "bytes10",
          "name": "currency",
          "type": "bytes10"
        }
      ],
      "name": "deposit",
      "outputs": [],
      "stateMutability": "payable",
      "type": "function",
      "payable": true
    },
    {
      "inputs": [
        {
          "internalType": "bytes10",
          "name": "currency",
          "type": "bytes10"
        }
      ],
      "name": "balance",
      "outputs": [
        {
          "internalType": "uint256",
          "name": "",
          "type": "uint256"
        }
      ],
      "stateMutability": "view",
      "type": "function",
      "constant": true
    }
  ],
  "bytecode": "0x608060405234801561001057600080fd5b506104b4806100206000396000f3fe6080604052600436106100295760003560e01c806346995aec1461002e578063ac0c970d1461006b575b600080fd5b34801561003a57600080fd5b50610055600480360381019061005091906102af565b610087565b60405161006291906102f5565b60405180910390f35b6100856004803603810190610080919061033c565b610115565b005b60008060003373ffffffffffffffffffffffffffffffffffffffff1673ffffffffffffffffffffffffffffffffffffffff16815260200190815260200160002060008375ffffffffffffffffffffffffffffffffffffffffffff191675ffffffffffffffffffffffffffffffffffffffffffff19168152602001908152602001600020600001549050919050565b813414610157576040517f08c379a000000000000000000000000000000000000000000000000000000000815260040161014e906103d9565b60405180910390fd5b60008060003373ffffffffffffffffffffffffffffffffffffffff1673ffffffffffffffffffffffffffffffffffffffff16815260200190815260200160002060008375ffffffffffffffffffffffffffffffffffffffffffff191675ffffffffffffffffffffffffffffffffffffffffffff1916815260200190815260200160002090508281600001546101ec9190610428565b816000018190555060008160010160009054906101000a900460b01b75ffffffffffffffffffffffffffffffffffffffffffff19160361024d57818160010160006101000a81548169ffffffffffffffffffff021916908360b01c02179055505b505050565b600080fd5b60007fffffffffffffffffffff0000000000000000000000000000000000000000000082169050919050565b61028c81610257565b811461029757600080fd5b50565b6000813590506102a981610283565b92915050565b6000602082840312156102c5576102c4610252565b5b60006102d38482850161029a565b91505092915050565b6000819050919050565b6102ef816102dc565b82525050565b600060208201905061030a60008301846102e6565b92915050565b610319816102dc565b811461032457600080fd5b50565b60008135905061033681610310565b92915050565b6000806040838503121561035357610352610252565b5b600061036185828601610327565b92505060206103728582860161029a565b9150509250929050565b600082825260208201905092915050565b7f496e636f727265637420616d6f756e7400000000000000000000000000000000600082015250565b60006103c360108361037c565b91506103ce8261038d565b602082019050919050565b600060208201905081810360008301526103f2816103b6565b9050919050565b7f4e487b7100000000000000000000000000000000000000000000000000000000600052601160045260246000fd5b6000610433826102dc565b915061043e836102dc565b9250827fffffffffffffffffffffffffffffffffffffffffffffffffffffffffffffffff03821115610473576104726103f9565b5b82820190509291505056fea2646970667358221220bd94385a69b55328e9517be7bb18210de0e72c14fa985e7b397c700ae027f00164736f6c634300080d0033",
  "immutableReferences": {},
  "source": "// SPDX-License-Identifier: MIT\r\npragma solidity ^0.8.13;\r\n\r\ncontract CryptoDeposit {\r\n\r\n    struct Account {\r\n        uint256 balance;\r\n        bytes10 currency; \r\n    }\r\n\r\n    mapping(address=> mapping(bytes10 => Account)) accounts;\r\n\r\n    function deposit(uint256 amount, bytes10 currency) external payable {\r\n        require(msg.value == amount, \"Incorrect amount\");\r\n        Account storage account = accounts[msg.sender][currency];\r\n        account.balance = account.balance + amount;\r\n\r\n        if(account.currency == \"\"){\r\n            account.currency = currency;\r\n        }\r\n    }\r\n\r\n    function balance (bytes10 currency) external view returns(uint256){\r\n        return accounts[msg.sender][currency].balance;\r\n    }\r\n\r\n}",
  "sourcePath": "C:\\Users\\Usuario\\Desktop\\UserManager\\contracts\\CryptoDeposit.sol",
  "compiler": {
    "name": "solc",
    "version": "0.8.13+commit.abaa5c0e.Emscripten.clang"
  },
  "schemaVersion": "3.4.16",
  "updatedAt": "2024-04-11T00:50:54.104Z",
  "networkType": "ethereum",
  "devdoc": {
    "kind": "dev",
    "methods": {},
    "version": 1
  },
  "userdoc": {
    "kind": "user",
    "methods": {},
    "version": 1
  }
}