{
  "contractName": "Manager",
  "abi": [
    {
      "inputs": [
        {
          "internalType": "uint256",
          "name": "age",
          "type": "uint256"
        },
        {
          "internalType": "string",
          "name": "name",
          "type": "string"
        },
        {
          "internalType": "string",
          "name": "gender",
          "type": "string"
        }
      ],
      "name": "register",
      "outputs": [],
      "stateMutability": "nonpayable",
      "type": "function"
    },
    {
      "inputs": [],
      "name": "consult",
      "outputs": [
        {
          "components": [
            {
              "internalType": "uint256",
              "name": "age",
              "type": "uint256"
            },
            {
              "internalType": "string",
              "name": "name",
              "type": "string"
            },
            {
              "internalType": "string",
              "name": "gender",
              "type": "string"
            }
          ],
          "internalType": "struct Manager.User",
          "name": "",
          "type": "tuple"
        }
      ],
      "stateMutability": "view",
      "type": "function",
      "constant": true
    },
    {
      "inputs": [],
      "name": "_delete",
      "outputs": [],
      "stateMutability": "nonpayable",
      "type": "function"
    }
  ],
  "bytecode": "0x608060405234801561001057600080fd5b506107c1806100206000396000f3fe608060405234801561001057600080fd5b50600436106100415760003560e01c80637eeda703146100465780638d28dda814610064578063bcda2c0c14610080575b600080fd5b61004e61008a565b60405161005b9190610509565b60405180910390f35b61007e600480360381019061007991906106a0565b61020e565b005b610088610291565b005b6100926102fc565b6000803373ffffffffffffffffffffffffffffffffffffffff1673ffffffffffffffffffffffffffffffffffffffff168152602001908152602001600020604051806060016040529081600082015481526020016001820180546100f59061075a565b80601f01602080910402602001604051908101604052809291908181526020018280546101219061075a565b801561016e5780601f106101435761010080835404028352916020019161016e565b820191906000526020600020905b81548152906001019060200180831161015157829003601f168201915b505050505081526020016002820180546101879061075a565b80601f01602080910402602001604051908101604052809291908181526020018280546101b39061075a565b80156102005780601f106101d557610100808354040283529160200191610200565b820191906000526020600020905b8154815290600101906020018083116101e357829003601f168201915b505050505081525050905090565b60008060003373ffffffffffffffffffffffffffffffffffffffff1673ffffffffffffffffffffffffffffffffffffffff16815260200190815260200160002090508381600001819055508281600101908051906020019061027192919061031d565b508181600201908051906020019061028a92919061031d565b5050505050565b6000803373ffffffffffffffffffffffffffffffffffffffff1673ffffffffffffffffffffffffffffffffffffffff1681526020019081526020016000206000808201600090556001820160006102e891906103a3565b6002820160006102f891906103a3565b5050565b60405180606001604052806000815260200160608152602001606081525090565b8280546103299061075a565b90600052602060002090601f01602090048101928261034b5760008555610392565b82601f1061036457805160ff1916838001178555610392565b82800160010185558215610392579182015b82811115610391578251825591602001919060010190610376565b5b50905061039f91906103e3565b5090565b5080546103af9061075a565b6000825580601f106103c157506103e0565b601f0160209004906000526020600020908101906103df91906103e3565b5b50565b5b808211156103fc5760008160009055506001016103e4565b5090565b6000819050919050565b61041381610400565b82525050565b600081519050919050565b600082825260208201905092915050565b60005b83811015610453578082015181840152602081019050610438565b83811115610462576000848401525b50505050565b6000601f19601f8301169050919050565b600061048482610419565b61048e8185610424565b935061049e818560208601610435565b6104a781610468565b840191505092915050565b60006060830160008301516104ca600086018261040a565b50602083015184820360208601526104e28282610479565b915050604083015184820360408601526104fc8282610479565b9150508091505092915050565b6000602082019050818103600083015261052381846104b2565b905092915050565b6000604051905090565b600080fd5b600080fd5b61054881610400565b811461055357600080fd5b50565b6000813590506105658161053f565b92915050565b600080fd5b600080fd5b7f4e487b7100000000000000000000000000000000000000000000000000000000600052604160045260246000fd5b6105ad82610468565b810181811067ffffffffffffffff821117156105cc576105cb610575565b5b80604052505050565b60006105df61052b565b90506105eb82826105a4565b919050565b600067ffffffffffffffff82111561060b5761060a610575565b5b61061482610468565b9050602081019050919050565b82818337600083830152505050565b600061064361063e846105f0565b6105d5565b90508281526020810184848401111561065f5761065e610570565b5b61066a848285610621565b509392505050565b600082601f8301126106875761068661056b565b5b8135610697848260208601610630565b91505092915050565b6000806000606084860312156106b9576106b8610535565b5b60006106c786828701610556565b935050602084013567ffffffffffffffff8111156106e8576106e761053a565b5b6106f486828701610672565b925050604084013567ffffffffffffffff8111156107155761071461053a565b5b61072186828701610672565b9150509250925092565b7f4e487b7100000000000000000000000000000000000000000000000000000000600052602260045260246000fd5b6000600282049050600182168061077257607f821691505b6020821081036107855761078461072b565b5b5091905056fea2646970667358221220f7b31f6f8b40b3d36f04b66f144147c6abdb68326aa1c1a39ebc79afe030996264736f6c634300080d0033",
  "immutableReferences": {},
  "source": "// SPDX-License-Identifier: MIT\npragma solidity ^0.8.13;\n\ncontract Manager{\n\n    struct User {\n        uint age;\n        string name;\n        string gender;\n    }\n\n    mapping (address => User) private userList;\n\n    function register(uint age, string memory name, string memory gender) public {\n        //msg.sender -> person-blockchain\n        User storage _user = userList[msg.sender];\n\n        _user.age = age;\n        _user.name = name;\n        _user.gender = gender;\n    } \n\n\n    function consult () public view returns (User memory){\n        return userList[msg.sender];\n    }\n\n    function _delete ()public{\n        delete userList[msg.sender];\n    }\n}",
  "sourcePath": "C:\\Users\\Usuario\\Desktop\\UserManager\\contracts\\Manager.sol",
  "compiler": {
    "name": "solc",
    "version": "0.8.13+commit.abaa5c0e.Emscripten.clang"
  },
  "schemaVersion": "3.4.16",
  "updatedAt": "2024-04-06T02:18:56.485Z",
  "networkType": "ethereum",
  "devdoc": {
    "kind": "dev",
    "methods": {},
    "version": 1
  },
  "userdoc": {
    "kind": "user",
    "methods": {},
    "version": 1
  }
}