{
  "contractName": "Manager",
  "abi": [
    {
      "inputs": [
        {
          "internalType": "string",
          "name": "name",
          "type": "string"
        },
        {
          "internalType": "address",
          "name": "user",
          "type": "address"
        }
      ],
      "name": "register",
      "outputs": [],
      "stateMutability": "nonpayable",
      "type": "function"
    },
    {
      "inputs": [
        {
          "internalType": "address",
          "name": "user",
          "type": "address"
        }
      ],
      "name": "consult",
      "outputs": [
        {
          "internalType": "string",
          "name": "",
          "type": "string"
        }
      ],
      "stateMutability": "view",
      "type": "function",
      "constant": true
    },
    {
      "inputs": [
        {
          "internalType": "address",
          "name": "user",
          "type": "address"
        }
      ],
      "name": "_delete",
      "outputs": [],
      "stateMutability": "nonpayable",
      "type": "function"
    }
  ],
  "bytecode": "0x608060405234801561001057600080fd5b50610686806100206000396000f3fe608060405234801561001057600080fd5b50600436106100415760003560e01c80631e59c52914610046578063283583c6146100625780633f8d95bd14610092575b600080fd5b610060600480360381019061005b91906104bd565b6100ae565b005b61007c60048036038101906100779190610519565b610105565b60405161008991906105ce565b60405180910390f35b6100ac60048036038101906100a79190610519565b6101d5565b005b816000808373ffffffffffffffffffffffffffffffffffffffff1673ffffffffffffffffffffffffffffffffffffffff1681526020019081526020016000209080519060200190610100929190610222565b505050565b60606000808373ffffffffffffffffffffffffffffffffffffffff1673ffffffffffffffffffffffffffffffffffffffff16815260200190815260200160002080546101509061061f565b80601f016020809104026020016040519081016040528092919081815260200182805461017c9061061f565b80156101c95780601f1061019e576101008083540402835291602001916101c9565b820191906000526020600020905b8154815290600101906020018083116101ac57829003601f168201915b50505050509050919050565b6000808273ffffffffffffffffffffffffffffffffffffffff1673ffffffffffffffffffffffffffffffffffffffff168152602001908152602001600020600061021f91906102a8565b50565b82805461022e9061061f565b90600052602060002090601f0160209004810192826102505760008555610297565b82601f1061026957805160ff1916838001178555610297565b82800160010185558215610297579182015b8281111561029657825182559160200191906001019061027b565b5b5090506102a491906102e8565b5090565b5080546102b49061061f565b6000825580601f106102c657506102e5565b601f0160209004906000526020600020908101906102e491906102e8565b5b50565b5b808211156103015760008160009055506001016102e9565b5090565b6000604051905090565b600080fd5b600080fd5b600080fd5b600080fd5b6000601f19601f8301169050919050565b7f4e487b7100000000000000000000000000000000000000000000000000000000600052604160045260246000fd5b61036c82610323565b810181811067ffffffffffffffff8211171561038b5761038a610334565b5b80604052505050565b600061039e610305565b90506103aa8282610363565b919050565b600067ffffffffffffffff8211156103ca576103c9610334565b5b6103d382610323565b9050602081019050919050565b82818337600083830152505050565b60006104026103fd846103af565b610394565b90508281526020810184848401111561041e5761041d61031e565b5b6104298482856103e0565b509392505050565b600082601f83011261044657610445610319565b5b81356104568482602086016103ef565b91505092915050565b600073ffffffffffffffffffffffffffffffffffffffff82169050919050565b600061048a8261045f565b9050919050565b61049a8161047f565b81146104a557600080fd5b50565b6000813590506104b781610491565b92915050565b600080604083850312156104d4576104d361030f565b5b600083013567ffffffffffffffff8111156104f2576104f1610314565b5b6104fe85828601610431565b925050602061050f858286016104a8565b9150509250929050565b60006020828403121561052f5761052e61030f565b5b600061053d848285016104a8565b91505092915050565b600081519050919050565b600082825260208201905092915050565b60005b83811015610580578082015181840152602081019050610565565b8381111561058f576000848401525b50505050565b60006105a082610546565b6105aa8185610551565b93506105ba818560208601610562565b6105c381610323565b840191505092915050565b600060208201905081810360008301526105e88184610595565b905092915050565b7f4e487b7100000000000000000000000000000000000000000000000000000000600052602260045260246000fd5b6000600282049050600182168061063757607f821691505b60208210810361064a576106496105f0565b5b5091905056fea2646970667358221220fbf48b5e6f1226cea0e2cc8696f2ffe55c2e6f9f15821f5105c090add5e9aec164736f6c634300080d0033",
  "immutableReferences": {},
  "source": "// SPDX-License-Identifier: MIT\npragma solidity ^0.8.13;\n\ncontract Manager{\n\n    mapping (address => string) private userList;\n\n    function register(string memory name, address user) public {\n        userList[user] = name;\n    } \n\n\n    function consult (address user ) public view returns (string memory){\n        return userList[user];\n    }\n\n    function _delete (address user )public{\n        delete userList[user];\n    }\n}",
  "sourcePath": "C:\\Users\\Usuario\\Desktop\\UserManager\\contracts\\Manager.sol",
  "compiler": {
    "name": "solc",
    "version": "0.8.13+commit.abaa5c0e.Emscripten.clang"
  },
  "schemaVersion": "3.4.16",
  "updatedAt": "2024-04-03T00:36:06.593Z",
  "networkType": "ethereum",
  "devdoc": {
    "kind": "dev",
    "methods": {},
    "version": 1
  },
  "userdoc": {
    "kind": "user",
    "methods": {},
    "version": 1
  }
}