{
  "contractName": "Manager",
  "abi": [
    {
      "inputs": [
        {
          "internalType": "uint256",
          "name": "age",
          "type": "uint256"
        },
        {
          "internalType": "string",
          "name": "name",
          "type": "string"
        },
        {
          "internalType": "string",
          "name": "gender",
          "type": "string"
        },
        {
          "internalType": "address",
          "name": "user",
          "type": "address"
        }
      ],
      "name": "register",
      "outputs": [],
      "stateMutability": "nonpayable",
      "type": "function"
    },
    {
      "inputs": [
        {
          "internalType": "address",
          "name": "user",
          "type": "address"
        }
      ],
      "name": "consult",
      "outputs": [
        {
          "components": [
            {
              "internalType": "uint256",
              "name": "age",
              "type": "uint256"
            },
            {
              "internalType": "string",
              "name": "name",
              "type": "string"
            },
            {
              "internalType": "string",
              "name": "gender",
              "type": "string"
            }
          ],
          "internalType": "struct Manager.User",
          "name": "",
          "type": "tuple"
        }
      ],
      "stateMutability": "view",
      "type": "function",
      "constant": true
    },
    {
      "inputs": [
        {
          "internalType": "address",
          "name": "user",
          "type": "address"
        }
      ],
      "name": "_delete",
      "outputs": [],
      "stateMutability": "nonpayable",
      "type": "function"
    }
  ],
  "bytecode": "0x608060405234801561001057600080fd5b50610888806100206000396000f3fe608060405234801561001057600080fd5b50600436106100415760003560e01c8063283583c6146100465780633f8d95bd146100765780636aa2de1c14610092575b600080fd5b610060600480360381019061005b919061049a565b6100ae565b60405161006d91906105d0565b60405180910390f35b610090600480360381019061008b919061049a565b610234565b005b6100ac60048036038101906100a79190610753565b6102a0565b005b6100b6610324565b6000808373ffffffffffffffffffffffffffffffffffffffff1673ffffffffffffffffffffffffffffffffffffffff1681526020019081526020016000206040518060600160405290816000820154815260200160018201805461011990610821565b80601f016020809104026020016040519081016040528092919081815260200182805461014590610821565b80156101925780601f1061016757610100808354040283529160200191610192565b820191906000526020600020905b81548152906001019060200180831161017557829003601f168201915b505050505081526020016002820180546101ab90610821565b80601f01602080910402602001604051908101604052809291908181526020018280546101d790610821565b80156102245780601f106101f957610100808354040283529160200191610224565b820191906000526020600020905b81548152906001019060200180831161020757829003601f168201915b5050505050815250509050919050565b6000808273ffffffffffffffffffffffffffffffffffffffff1673ffffffffffffffffffffffffffffffffffffffff16815260200190815260200160002060008082016000905560018201600061028b9190610345565b60028201600061029b9190610345565b505050565b60008060008373ffffffffffffffffffffffffffffffffffffffff1673ffffffffffffffffffffffffffffffffffffffff168152602001908152602001600020905084816000018190555083816001019080519060200190610303929190610385565b508281600201908051906020019061031c929190610385565b505050505050565b60405180606001604052806000815260200160608152602001606081525090565b50805461035190610821565b6000825580601f106103635750610382565b601f016020900490600052602060002090810190610381919061040b565b5b50565b82805461039190610821565b90600052602060002090601f0160209004810192826103b357600085556103fa565b82601f106103cc57805160ff19168380011785556103fa565b828001600101855582156103fa579182015b828111156103f95782518255916020019190600101906103de565b5b509050610407919061040b565b5090565b5b8082111561042457600081600090555060010161040c565b5090565b6000604051905090565b600080fd5b600080fd5b600073ffffffffffffffffffffffffffffffffffffffff82169050919050565b60006104678261043c565b9050919050565b6104778161045c565b811461048257600080fd5b50565b6000813590506104948161046e565b92915050565b6000602082840312156104b0576104af610432565b5b60006104be84828501610485565b91505092915050565b6000819050919050565b6104da816104c7565b82525050565b600081519050919050565b600082825260208201905092915050565b60005b8381101561051a5780820151818401526020810190506104ff565b83811115610529576000848401525b50505050565b6000601f19601f8301169050919050565b600061054b826104e0565b61055581856104eb565b93506105658185602086016104fc565b61056e8161052f565b840191505092915050565b600060608301600083015161059160008601826104d1565b50602083015184820360208601526105a98282610540565b915050604083015184820360408601526105c38282610540565b9150508091505092915050565b600060208201905081810360008301526105ea8184610579565b905092915050565b6105fb816104c7565b811461060657600080fd5b50565b600081359050610618816105f2565b92915050565b600080fd5b600080fd5b7f4e487b7100000000000000000000000000000000000000000000000000000000600052604160045260246000fd5b6106608261052f565b810181811067ffffffffffffffff8211171561067f5761067e610628565b5b80604052505050565b6000610692610428565b905061069e8282610657565b919050565b600067ffffffffffffffff8211156106be576106bd610628565b5b6106c78261052f565b9050602081019050919050565b82818337600083830152505050565b60006106f66106f1846106a3565b610688565b90508281526020810184848401111561071257610711610623565b5b61071d8482856106d4565b509392505050565b600082601f83011261073a5761073961061e565b5b813561074a8482602086016106e3565b91505092915050565b6000806000806080858703121561076d5761076c610432565b5b600061077b87828801610609565b945050602085013567ffffffffffffffff81111561079c5761079b610437565b5b6107a887828801610725565b935050604085013567ffffffffffffffff8111156107c9576107c8610437565b5b6107d587828801610725565b92505060606107e687828801610485565b91505092959194509250565b7f4e487b7100000000000000000000000000000000000000000000000000000000600052602260045260246000fd5b6000600282049050600182168061083957607f821691505b60208210810361084c5761084b6107f2565b5b5091905056fea26469706673582212209acfa6ea9929b139ea529820e7cc5dcdb4270b7278a1597155cd88d1bbd5e45064736f6c634300080d0033",
  "immutableReferences": {},
  "source": "// SPDX-License-Identifier: MIT\npragma solidity ^0.8.13;\n\ncontract Manager{\n\n    struct User {\n        uint age;\n        string name;\n        string gender;\n    }\n\n    mapping (address => User) private userList;\n\n    function register(uint age, string memory name, string memory gender, address user) public {\n        User storage _user = userList[user];\n        _user.age = age;\n        _user.name = name;\n        _user.gender = gender;\n    } \n\n\n    function consult (address user ) public view returns (User memory){\n        return userList[user];\n    }\n\n    function _delete (address user )public{\n        delete userList[user];\n    }\n}",
  "sourcePath": "C:\\Users\\Usuario\\Desktop\\UserManager\\contracts\\Manager.sol",
  "compiler": {
    "name": "solc",
    "version": "0.8.13+commit.abaa5c0e.Emscripten.clang"
  },
  "schemaVersion": "3.4.16",
  "updatedAt": "2024-04-05T01:32:59.203Z",
  "networkType": "ethereum",
  "devdoc": {
    "kind": "dev",
    "methods": {},
    "version": 1
  },
  "userdoc": {
    "kind": "user",
    "methods": {},
    "version": 1
  }
}